:020000040800F2
:100000006821002079340008E5320008E732000852
:10001000E9320008EB320008ED3200080000000071
:10002000000000000000000000000000EF320008A7
:10003000F132000800000000F3320008F532000839
:100040009D340008A1340008A5340008A934000834
:10005000AD340008B1340008FD320008B5340008A2
:10006000B9340008BD340008C1340008C5340008A4
:10007000C9340008CD340008D1340008D534000854
:10008000D9340008DD340008E1340008E534000804
:100090008D330008E9340008ED340008F13400081D
:1000A000F5340008F9340008FD3400080135000873
:1000B00005350008093500080D3500081135000820
:1000C00015350008193500081D35000821350008D0
:1000D0009733000825350008B33300082935000898
:1000E0002D35000831350008353500083935000850
:1000F0003D35000841350008453500084935000800
:100100004D350008513500085535000859350008AF
:100110005D3500086135000865350008693500085F
:100120006D3500087135000875350008793500080F
:100130007D350008813500088535000889350008BF
:100140008D3500089135000895350008993500086F
:100150009D350008A1350008A5350008A93500081F
:10016000AD350008B1350008B5350008B9350008CF
:10017000BD350008C1350008C53500080000000085
:10018000C9350008CD35000810B50400002C01D198
:10019000012062E0606A002807D160684FF4827134
:1001A000884206D00020E06103E0002020610020AA
:1001B00060610020A06294F85100002805D1002061
:1001C00084F85000200000F0D0FC022084F8510098
:1001D0002068006830F040002168086060684FF4D3
:1001E00082710840A16811F404410843E16811F4E8
:1001F00000610843217C11F002010843217D11F0C8
:1002000001010843A1694FF4007211400843217FA6
:1002100011F03801084394F8201011F080010843D0
:10022000A16A11F40051084321680860A069000C1C
:1002300010F0040094F8241011F010010843216814
:1002400048602068C06930F400602168C8610020FF
:100250006065012084F85100002010BD10B5040035
:10026000002C01D1012014E0022084F85100206804
:10027000006830F0400021680860200000F0B5FC04
:1002800000206065002084F85100002084F85000B0
:10029000002010BD002902D092B2002A01D1012015
:1002A0004CE090F85130012B01D0022046E090F84C
:1002B0005030012B01D1022040E0012380F8503062
:1002C000032380F851300023436501638286C28690
:1002D00000218163002181870021C1870021016401
:1002E000C168002903D0DFF82413416402E0DFF87D
:1002F000201341648168B1F5004F0BD10168096892
:1003000031F04001026811600168096851F48041D0
:100310000268116001680968490605D40168096826
:1003200051F0400102681160002180F8501001680E
:10033000496851F0A001006841600020704710B585
:1003400090F85130012B01D002205EE0002902D04C
:1003500092B2002A01D1012057E08368002B0DD111
:1003600043684FF48274A34208D1042380F85130CB
:1003700013009BB20A0000F049F846E090F85030B4
:10038000012B01D1022040E0012380F850300423EA
:1003900080F851300023436581638287C287002142
:1003A0000163002181860021C18600214164C1686A
:1003B000002903D00FF25131016402E00FF2253120
:1003C00001648168B1F5004F0BD10168096831F013
:1003D0004001026811600168096831F480410268D7
:1003E000116001680968490605D40168096851F07F
:1003F000400102681160002180F8501001684968CE
:1004000051F0600100684160002010BD70B490F8A8
:1004100051504468EDB2012D0BD04FF48276B442B6
:1004200005D18468002C02D1EDB2042D01D0022048
:1004300044E0002904D0002A02D09BB2002B01D155
:1004400001203BE090F85040012C01D1022035E022
:10045000012480F8504090F85140042C02D005242B
:1004600080F851400024446501638386C38682631B
:100470008387C387C168002906D00FF20121016478
:100480000FF22D21416405E00FF2891101640FF292
:10049000B911416401680968490605D40168096811
:1004A00051F0400102681160002180F8501001688D
:1004B000496851F0E00100684160002070BC70475D
:1004C00010B582B0040020684068216889684A0637
:1004D0000AD411F00102D2B2002A05D0420603D597
:1004E0002000216C884782E08A0705D5020603D5E3
:1004F0002000616C88477AE04FF4B072114276D0E8
:10050000820674D54A0610D594F85120032A60D08B
:10051000626D52F004026265002200922268D26885
:100520000092226892680092009A8A060FD5626D46
:1005300052F00102626500220092226892680092E5
:100540002268126832F0400223681A60009AC905D6
:1005500009D5616D51F008016165002100912168A4
:10056000896800910099616D00293FD02168496830
:1005700031F0E00122685160012184F8511010F03F
:10058000030F30D0206840688008800021684860F0
:10059000E06C00280CD0E06C0FF25D010165E06CAE
:1005A00000F090FB002803D0606D50F040006065C3
:1005B000A06C00281AD0A06C0FF23D010165A06C60
:1005C00000F080FB002811D0606D50F040006065A5
:1005D0000CE0002000902068C068009020688068CF
:1005E0000090009803E0200000F004F8FFE713BD3E
:1005F000704770477047000080B5806B0021C1874D
:100600000021C186FFF7F6FF01BD00004D0700087D
:100610002B07000880B5816B0268127B0A70816B22
:10062000491C8163C18F491EC187C18F00290AD12E
:100630000168496831F0600102685160C18E00298B
:1006400001D100F08FF901BD80B50168026B12780D
:100650000A73016B491C0163C18E491EC186C18E9C
:1006600000290AD10168496831F0800102685160AF
:10067000C18F002901D100F075F901BD80B5816BF2
:100680000268D2680A80816B891C8163C18F491E10
:10069000C187C18F00290AD10168496831F0400142
:1006A00002685160C18E002901D100F05BF901BDE3
:1006B00080B50168026B1288CA60016B891C0163F6
:1006C000C18E491EC186C18E00290AD101684968C0
:1006D00031F0800102685160C18F002901D100F022
:1006E00041F901BD80B5816B0268127B0A70816B94
:1006F000491C8163C18F491EC187C18F002901D167
:1007000000F089F901BD000080B5816B0268D268F4
:100710000A80816B891C8163C18F491EC187C18F8B
:10072000002901D100F077F901BD80B50168026BA5
:1007300012780A73016B491C0163C18E491EC18680
:10074000C18E002901D100F096F901BD80B5016884
:10075000026B1288CA60016B891C0163C18E491E3D
:10076000C186C18E002901D100F085F901BD2DE9B6
:10077000F84304000D0016001F00DDF8208000F093
:1007800012FB381A18EB000900F00DFB8046DFF869
:100790007C0300684001000D00FB09F0009001E0BF
:1007A0005FF00009206880682840A84201D101203C
:1007B00000E00020F6B2B04243D017F1010FF1D0B3
:1007C00000F0F1FAB0EB0800484502D2B9F1000F91
:1007D00030D12068406830F0E000216848606068EF
:1007E0004FF4827188420DD1A068B0F5004F03D05C
:1007F000A068B0F5806F05D12068006830F0400037
:1008000021680860A06AB0F5005F0BD1206800681D
:1008100030F40050216808602068006850F40050EF
:1008200021680860012084F85100002084F85000FD
:10083000032007E000980028B2D00098401E0090E6
:10084000B0E70020BDE8F28310B582B00400606814
:100850004FF4827398420DD1A068B0F5004F03D0D9
:10086000A068B0F5806F05D12068006830F04000C6
:100870002368186060684FF48273984221D1A068A1
:10088000B0F5806F0ED000920B0000228021200076
:10089000FFF76DFF002823D0606D50F020006065E9
:1008A00003201EE000920B00002201212000FFF730
:1008B0005EFF002814D0606D50F0200060650320BA
:1008C0000FE000920B00002201212000FFF74FFFF4
:1008D000002805D0606D50F020006065032000E026
:1008E000002016BD70B582B004000D001600009601
:1008F0002B00012202212000FFF739FF002805D03C
:10090000606D50F02000606503202AE07F48006899
:100910001821B0FBF1F07E49B0FBF1F04FF47A7191
:100920004843009060684FF4827188420ED100966F
:100930002B00002280212000FFF719FF00280FD094
:10094000606D50F02000606503200AE000980028E8
:1009500006D00098401E0090206880680006F5D4FC
:10096000002076BD10B582B00400684800681821E8
:10097000B0FBF1F04FF47A71B0FBF1F06421484321
:10098000009000F010FA2168496831F020012268D7
:1009900051600099002904D1616D51F02001616519
:1009A00006E00099491E0091216889688907F0D501
:1009B000020064212000FFF795FF002803D0606D3E
:1009C00050F020006065A068002808D10020009049
:1009D0002068C06800902068806800900098606D72
:1009E000002811D194F85100042806D1012084F880
:1009F00051002000FFF7FCFD0CE0012084F85100BD
:100A00002000FFF7F6FD05E0012084F851002000EA
:100A1000FFF7F0FD13BD10B582B0040020684068F8
:100A200030F060002168486000F0BDF902006421E8
:100A30002000FFF709FF002803D0606D50F0200070
:100A40006065A068002808D1002000902068C06878
:100A500000902068806800900098012084F8510080
:100A6000606D002803D12000FFF7C2FD02E02000E6
:100A7000FFF7C0FD13BD10B582B004002348006825
:100A80001821B0FBF1F04FF47A71B0FBF1F0642162
:100A90004843009000F087F90099002904D1616D66
:100AA00051F02001616506E00099491E009121681E
:100AB00089688907F0D52168496831F0A00122686A
:100AC0005160020064212000FFF70CFF002803D0D2
:100AD000606D50F020006065A068002808D10020FB
:100AE00000902068C068009020688068009000989E
:100AF000012084F85100606D002803D02000FFF72A
:100B000079FD02E0200000F073FB13BD040000201B
:100B100040420F0080B53F483F4901603D480021F9
:100B200041603C48002181603A480021C160394859
:100B30000021016137480021416136484FF40071BE
:100B4000816134480021016232480021416231480C
:100B5000002181622F480A21C1622E48FFF714FB51
:100B6000002801D000F0A8FB01BD30B587B004001B
:100B700001A8142100F0A2FB20682749884232D145
:100B8000002000902548006850F480402349086008
:100B90002248006810F480400090009C00200090E3
:100BA0001F48006850F002001D4908601C4800689A
:100BB00010F002000090009D4FF460400190022070
:100BC000029000200390032004900520059001A9C5
:100BD000144800F087FB00220021242000F0CFFD04
:100BE000242000F0DFFD07B030BD80B500680A4961
:100BF00088420DD10948006830F4804007490860F8
:100C00004FF46041074800F05EFC242000F0CFFD67
:100C100001BD00000C0000200038004040380240B8
:100C2000303802400004024070B50400A56D00F0A9
:100C3000BAF8060094F83500022806D080206065D6
:100C4000002084F8340001203BE02068006830F088
:100C50001600216808602068406930F08000216833
:100C60004861206C002802D1A06C002805D02068C3
:100C7000006830F0080021680860206800684008BB
:100C800040002168086020680068C0070ED500F0A9
:100C90008AF8801B0628F6D320206065032084F89C
:100CA0003500002084F8340003200AE03F20E16D85
:100CB0008840A860012084F83500002084F83400C2
:100CC000002070BD90F83510022903D080214165C5
:100CD000012009E0052180F83510016809684908FC
:100CE0004900006801600020704710B450F8041BF0
:100CF00081B102681218001D50F8043BDC0744BFA4
:100D0000A9F10104E31852F8044B43F8044B091FFE
:100D1000F9D1EBE710BC704780B52D4800684FF45F
:100D2000007108432A4908602948006850F480602F
:100D300027490860264800684FF480710843244919
:100D40000860032000F017FD002000F004F800F018
:100D500049FD002002BD10B504004FF47A701D4912
:100D60000978B0FBF1F01C490968B1FBF0F000F024
:100D700023FD002801D001200CE0102C09D2002214
:100D800021005FF0FF3000F0FAFC144804600020FE
:100D900000E0012010BD124800680E490978401893
:100DA0000F49086070470E480068704738B5040066
:100DB000FFF7F9FF050014F1010F02D00548007894
:100DC0002418FFF7F0FF401BA042FAD331BD00000A
:100DD000003C024009000020040000200000002028
:100DE0006001002080B5FFF797FF00F0B3F800F036
:100DF0001FFD00F095FD00F01BFEFFF78BFEDFF8F6
:100E0000640400F0D3FF002801D000F055FADFF8A9
:100E1000580400210160DFF8500400214160DFF830
:100E2000480400218160DFF840040021C160DFF840
:100E3000380400210161DFF8300400214161DFF84E
:100E4000280400218161DFF820040121C161DFF85D
:100E5000180401210162DFF810040E214162DFF85D
:100E60000814DFF8000400F013FF002801D000F0A0
:100E700023FA0221DFF8EC0301F0FCF8002801D08E
:100E800000F01AFA0322DFF8E413DFF8E40301F0BC
:100E90008BFA002801D000F00FFADFF8D803FFF733
:100EA00073F9002801D000F007FA0422DFF8C81314
:100EB000DFF8C003FFF743FA002801D000F0FCF987
:100EC000DFF8B8030078012817D1DFF8B00300215C
:100ED000017000224FF48051DFF8A40300F093FB6F
:100EE00000F085F80322DFF89013DFF88803FFF79E
:100EF00026FA002801D000F0DFF94FF4FA70FFF76E
:100F000055FFDFF88003007801280CD1DFF8740367
:100F10000021017000224FF40041DFF8640300F06B
:100F200072FB00F09EF84FF4FA70FFF73FFFDFF816
:100F3000580300780128C3D1DFF84C030021017069
:100F400000224FF40051DFF8380300F05CFB00F0A2
:100F5000E2F8B5E730B593B006A8302100F0AEF95D
:100F600001A8142100F0AAF900200090DFF81C036A
:100F7000006850F08050DFF814130860DFF80C03AD
:100F8000006810F080500090009C00200090DFF876
:100F90000003006850F48040BD490860BC48006808
:100FA00010F480400090009D012006905FF4803096
:100FB000079000200C9006A801F06AFD002801D0DF
:100FC00000F07AF90F200190012002900020039098
:100FD000002004904FF480500590002101A801F0FA
:100FE0007EFF002801D000F067F913B030BD80B556
:100FF000A8480078012802D0022822D030E005223B
:101000009D49A54802F096F8A44803210161A34830
:1010100000214160A14800218160A04801210160B8
:101020009E480021C1609D480021017501239A4A14
:101030009A498C4800F0EAFE002801D000F03CF903
:101040000EE005228C49964802F074F80A22944971
:10105000874801F08CF9002801D000F02DF9FFE756
:1010600001BD80B58B480078022844D0032851D1B7
:1010700005228C498C4802F05DF87E48FFF7EEF8B7
:10108000002801D000F018F97A48884901607948B1
:101090004FF48271416077480021816075480021DA
:1010A000C1607448002101617248002141617148AA
:1010B0004FF4007181616F480021C1616D480021CA
:1010C00001626C48002141626A48002181626948DE
:1010D0000A21C1626748FFF757F8002801D000F0E5
:1010E000EBF8052270496348FFF7D4F8002801D0D7
:1010F00000F0E2F80EE005226A49694802F01AF8A9
:101100000A2267495A4801F032F9002801D000F05C
:10111000D3F8FFE701BD80B55E480078012844D0D0
:10112000032864D1052251495F4802F003F8514871
:10113000FFF794F8002801D000F0BEF84D485B4955
:1011400001604C484FF4827141604A48002181603F
:1011500048480021C16047480021016145480021FD
:10116000416144484FF40071816142480021C161EE
:101170004048002101623F48002141623D48002172
:1011800081623C480A21C1623A48FEF7FDFF00280F
:1011900001D000F091F8052243493648FFF77AF86C
:1011A000002801D000F088F821E005222F493A48B4
:1011B00001F0C0FF39480321016138480021416036
:1011C0003648002181603548012101603348002103
:1011D000C16032480021017501232F4A2F4921485F
:1011E00000F014FE002801D000F066F8FFE701BD12
:1011F00080B500682D49884205D101224FF4004195
:101200001F4800F000FA01BD10B504001D4801217F
:10121000017001224FF40041194800F0F4F9214B0C
:10122000234A0021200000F06EFE002801D000F0CB
:1012300043F810BD80B500681E49884211D112489C
:101240000121017001224FF400510D4800F0DBF93B
:1012500003220649064801F0A7F8002801D000F053
:101260002BF801BDAC000020D40000204801002074
:10127000640000200C0000205801002064010020C0
:10128000000C024065010020660100204038024049
:1012900000700040080000203001002018010020EC
:1012A000400100203801002050010020003800409B
:1012B000FC0000200044004072B6FEE7002201F06E
:1012C00041BF50F8041B61B150F8042BD30744BF51
:1012D000A9F101039A18002342F8043B091FFAD12F
:1012E000EFE77047F8B4002500220024002338E01F
:1012F0000825EDB213F00306F6B2B600B5402C4354
:101300009D08DFF8346346F82540DFF83043246851
:1013100094434D68ED0200D51443DFF820532C6050
:10132000DFF81C43246894434D68AD0200D5144394
:10133000DFF80C532C60DFF80C43246894434D68AD
:10134000AD0300D51443DFF8FC522C60DFF8F842FF
:10135000246894434D68ED0300D51443BA4A1460E1
:101360005B1C102B80F0AD80012212FA03F50A6895
:101370002A40AA42F4D10C7914F00304012C04D0C1
:101380000C7914F00304022C17D1846803251E0085
:10139000F6B27600B540AC43CD681E00F6B27600DA
:1013A000B5402C438460446801259D40AC434D68A2
:1013B000C5F300159D402C4344600C7914F00304E0
:1013C000032C0DD0C46803251E00F6B27600B5408C
:1013D000AC438D681E00F6B27600B5402C43C46065
:1013E0000C7914F00304022C15D1DC0810EB8404F2
:1013F000246A0F2513F00706F6B2B600B540AC43D9
:101400000D6913F00706F6B2B600B5402C43DD08AF
:1014100010EB85052C62046803251E00F6B27600E9
:10142000B540AC430D7915F003051E00F6B2760009
:10143000B5402C4304604C6814F4403F90D0002425
:101440000094824C246854F48044804D2C607F4C7E
:10145000246814F480440094009D9C08764E56F84D
:1014600024400F2613F00307FFB2BF00BE40B44371
:10147000774EB04201D100253BE7764DA84201D11D
:10148000012536E7744DA84201D1022531E7734D9D
:10149000A84201D103252CE7714DA84201D10425B2
:1014A00027E7704DA84201D1052522E76E4DA842DD
:1014B00001D106251DE76D4DA8427FF419AF072520
:1014C00017E7F1BC704770B4002500220024002308
:1014D0005AE00825EDB213F00306F6B2B600B540A7
:1014E000AC4224D1584C24689443574D2C60554C41
:1014F00024689443534D2C60514C24689443504DC0
:101500002C604E4C246834EA02024C4C22600F22BC
:1015100013F00304E4B2A40012FA04F49A08464D4E
:1015200055F82220A2439C08434D45F82420026828
:1015300003241D00EDB26D00AC40A2430260DA0846
:1015400010EB8202DC0810EB8404246A0F2513F0F0
:101550000706F6B2B600B540AC431462C268032475
:101560001D00EDB26D00AC40A243C2604268012490
:101570009C40A2434260826803241D00EDB26D00CE
:10158000AC40A24382605B1C102B3AD2012212FABB
:1015900003F515EA0102AA42F5D19C08264D55F83B
:1015A00024400F2513F00306F6B2B600B5402C40D8
:1015B000274DA84201D100258CE7264DA84201D134
:1015C000012587E7244DA84201D1022582E7234D5A
:1015D000A84201D103257DE7214DA84201D1042570
:1015E00078E7204DA84201D1052573E71E4DA8429A
:1015F00001D106256EE71D4DA8427FF46AAF07258D
:1016000068E770BC7047D2B2002A02D089B281610B
:1016100002E089B209048161704780B51449096804
:1016200089B2014205D0124980B2086080B200F050
:1016300021F801BD0000000008380140083C0140CD
:101640000C3C0140043C0140003C01404438024055
:10165000000002400004024000080240000C02406A
:10166000001002400014024000180240001C02401A
:10167000143C01407047000010F00701DFF8400102
:1016800000684FF6FF021040DFF8382152EA0121CE
:101690000843DFF82C1108607047DFF82401006868
:1016A000C0F302207047000040B2002809D440B2C5
:1016B0004109454A012310F01F0013FA00F042F8D7
:1016C0002100704740B200280DD440B241093F4A82
:1016D000012310F01F0013FA00F042F82100BFF3BD
:1016E0004F8FBFF36F8F704740B2002804D440B2D1
:1016F000374A0901815407E040B210F00F00354A23
:101700008018090100F8041C704710B410F007009D
:10171000D0F10703052B01D3042301E0D0F1070327
:10172000041D072C01D2002000E0C01E012414FA81
:1017300003F35B1E19408140012313FA00F0401EA1
:101740001040084310BC704780B5411EB1F1807F46
:1017500001D301200EE0401E1F4908600F215FF0F9
:10176000FF30FFF7C1FF1D48002101601C48072121
:101770000160002002BD80B5FFF77EFF01BDF8B516
:1017800004000D0016000027FFF787FF0700320056
:1017900029003800FFF7B9FF0100200040B2FFF731
:1017A000A3FFF1BD80B540B2FFF77EFF01BD80B55C
:1017B00040B2FFF787FF01BD80B5FFF7C5FF02BD4F
:1017C0000CED00E00000FA0500E100E080E100E03F
:1017D00000E400E018ED00E014E000E018E000E0B4
:1017E00010E000E038B5002000900F48006850F489
:1017F00080400D4908600C48006810F4804000905B
:10180000009C002000900948006850F08050074973
:1018100008600648006810F080500090009D072086
:10182000FFF7A9FF31BD00BF4438024040380240F5
:10183000F0B587B001A81421FFF740FD002000900B
:101840003448006850F08000324908603148006830
:1018500010F080000090009C002000902D4800684F
:1018600050F001002B4908602A48006810F0010080
:101870000090009D002000902648006850F0020073
:10188000244908602348006810F002000090009E80
:10189000002000901F48006850F008001D490860B3
:1018A0001C48006810F008000090009F00224FF4D0
:1018B00050411948FFF7A7FE012001905FF48810FE
:1018C00002900020039001A91448FFF70BFD4FF48C
:1018D00050400190012002900020039000200490CD
:1018E00001A90D48FFF7FEFC4FF4005001905FF492
:1018F000881002900020039001A90748FFF7F2FC2E
:10190000002200210620FFF73AFF0620FFF74AFFDA
:1019100007B0F0BD30380240000C02400000024029
:1019200080B53E483E4901603C48012141603B484A
:101930000021816039480021C16038485FF4A0214E
:101940000161364800214161344800210176334865
:101950000021417631480021817630480021C1764E
:101960002E48002101772D48002141772B4800F0B7
:10197000D9F8002801D0FFF79FFC01BD30B587B032
:10198000040001A81421FFF799FC2068244988422B
:1019900041D1002000902348006850F00070214998
:1019A00008602048006810F000700090009C002043
:1019B00000901D48006850F002001B4908601A485A
:1019C000006810F002000090009D4FF480700190BC
:1019D000022002900120039003200490092005902A
:1019E00001A91248FFF77EFC4FF40070019002201D
:1019F000029000200390032004900920059001A983
:101A00000A48FFF76FFC002200211420FFF7B7FE01
:101A10001420FFF7C7FE07B030BD0000AC00002067
:101A20000064004040380240303802400004024068
:101A300080B537483749016035485FF4E13141608E
:101A400033480021816032480021C16030480021C4
:101A500001612F480C2141612D48002181612C48F2
:101A60000021C1612A4800F045FC002801D0FFF7A1
:101A700023FC01BD30B587B0040001A81421FFF795
:101A80001DFC2068234988423FD100200090224855
:101A9000006850F40030204908601F48006810F4C6
:101AA00000300090009C002000901C48006850F01E
:101AB00001001A4908601948006810F00100009000
:101AC000009D04200190022002900020039003203A
:101AD00004900720059001A91148FFF703FC082096
:101AE000019002200290012003900320049007201F
:101AF000059001A90A48FFF7F5FB002200212620E6
:101B0000FFF73DFE2620FFF74DFE07B030BD000079
:101B10006400002000440040403802403038024059
:101B20000000024038B50400002C01D10120AEE0D5
:101B300094F82000002802D12000FFF71FFF206842
:101B4000006850F0010021680860FFF72CF90500DB
:101B500020684068C0070DD4FFF725F9401B0B280B
:101B6000F6D3606A50F400306062052084F82000EB
:101B700001208CE02068006830F0020021680860D5
:101B8000FFF711F905002068406880070DD5FFF7C1
:101B90000AF9401B0B28F6D3606A50F400306062EB
:101BA000052084F82000012071E0207E012806D164
:101BB0002068006850F080002168086005E0206817
:101BC000006830F0800021680860607E012806D13E
:101BD0002068006850F040002168086005E0206837
:101BE000006830F0400021680860A07E012806D11E
:101BF0002068006850F020002168086005E0206837
:101C0000006830F0200021680860E07E012806D1DD
:101C10002068006830F010002168086005E0206846
:101C2000006850F0100021680860207F012806D16C
:101C30002068006850F008002168086005E020680E
:101C4000006830F0080021680860607F012806D134
:101C50002068006850F004002168086005E02068F2
:101C6000006830F0040021680860A068E16808435B
:101C700021690843616908436168491E0843216876
:101C8000C86100206062012084F82000002032BD7D
:101C900030B490F82020D2B2012A02D0D2B2022A67
:101CA0007DD15948D0F8002252F00102C0F800223C
:101CB000D0F8002232F47C52C0F80022D0F8002282
:101CC0004B6A52EA0322C0F8002201220B7D13F076
:101CD0001F039A40D0F81C329343C0F81C32CB69E2
:101CE000002B16D1D0F80C329343C0F80C324B695C
:101CF00010EBC303CC684D68C5EA0444C3F8404206
:101D00004B6910EBC3038C680D68C5EA0444C3F843
:101D10004442CB69012B16D1D0F80C321343C0F8E2
:101D20000C324B6910EBC3030C684D68C5EA0444E0
:101D3000C3F840424B6910EBC3038C68CD68C5EA19
:101D40000444C3F844428B69002B05D1D0F8043217
:101D50009343C0F8043204E0D0F804321343C0F8CF
:101D600004320B69002B05D1D0F814329343C0F82C
:101D7000143204E0D0F814321343C0F81432096A64
:101D8000012904D1D0F81C121143C0F81C12D0F85C
:101D9000001249084900C0F80012002004E0416A1E
:101DA00051F480214162012030BC704738B50400F5
:101DB00094F82000012821D1022084F82000206816
:101DC00000684008400021680860FEF7ECFF05004D
:101DD00020684068C0070DD5FEF7E5FF401B0B28C3
:101DE000F6D3606A50F400306062052084F8200069
:101DF000012008E000206062002004E0606A50F4E6
:101E000000206062012032BD0064004070B490F890
:101E100020400568AD688E68002EFFD0E4B2012C2A
:101E200002D0E4B2022C67D115F0E05F5ED0C5F3BA
:101E300001640125A5401D608B68002B09D10B684A
:101E4000CD6855EA4353056815EB0415C5F8803194
:101E50000AE04B688D6855EAC303CD682B430568DB
:101E600015EB0415C5F88031036813EB04130D69F5
:101E7000C3F88451097D01290CD1016811EB0411CB
:101E8000D1F884114FF480731943036813EB0413E2
:101E9000C3F88411D17993791B0453EA0161537912
:101EA00051EA032113791943036813EB0413C3F8B0
:101EB0008C11D17893781B0453EA0161537851EA6D
:101EC000032112781143026812EB0412C2F8881140
:101ED000016811EB0411D1F8801151F00101006883
:101EE00010EB0410C0F8801100200AE0416A51F4A0
:101EF00000114162012004E0416A51F480214162F5
:101F0000012070BC704710B490F82040E4B2012C5E
:101F100003D0E4B2022C40F0A68000290BD1046863
:101F2000E46814F00304002C11D1416A51F400114B
:101F3000416201209CE00468246914F00304002C31
:101F400005D1416A51F400114162012090E004681A
:101F500014EB0114D4F8B04114F0040494609468B4
:101F6000002C07D1046814EB0114D4F8B041640DBF
:101F7000146006E0046814EB0114D4F8B041E408DE
:101F80005460046814EB0114D4F8B04114F0020456
:101F9000D460046814EB0114D4F8B44114F00F04B5
:101FA000082C02D30824146107E0046814EB011420
:101FB000D4F8B44114F00F041461046814EB011454
:101FC000D4F8B441C4F307249461046814EB0114F9
:101FD000D4F8B441240C5461026812EB0112D2F817
:101FE000B8211A70026812EB0112D2F8B821120A55
:101FF0005A70026812EB0112D2F8B821120C9A70D2
:10200000026812EB0112D2F8B821120EDA700268DF
:1020100012EB0112D2F8BC211A71026812EB011204
:10202000D2F8BC21120A5A71026812EB0112D2F8DE
:10203000BC21120C9A71026812EB0112D2F8BC2179
:10204000120EDA71002906D10168C96851F0200129
:102050000068C16005E00168096951F0200100686D
:102060000161002004E0416A51F4802141620120B5
:1020700010BC704790F82020D2B2012A02D0D2B210
:10208000022A06D1026852691143006841610020AA
:1020900004E0416A51F480214162012070472DE93A
:1020A000F84F0400002520684669206847682068CA
:1020B000D0F808802068D0F80C902068D0F810A0E4
:1020C0002068D0F818B03000C00755D54046C0078A
:1020D00018D52068012181604046800703D5200083
:1020E00000F0FBF80EE04046400702D555F40065CD
:1020F00008E04046000702D555F4805502E0200074
:1021000000F0EEF85FEAC85019D520684FF48071EE
:1021100081605FEA885003D5200000F0DFF80EE010
:102120005FEA485002D555F4005508E05FEA0850D0
:1021300002D555F4804502E0200000F0D2F85FEAB5
:10214000C83019D520685FF4803181605FEA88303B
:1021500003D5200000F0C3F80EE05FEA483002D556
:1021600055F4004508E05FEA083002D555F48035A3
:1021700002E0200000F0B6F83000000708D548461D
:10218000C00605D54FF40070054320681021C160DA
:102190003000400708D55FEA097005D5206808219E
:1021A000C160200000F09FF83000800708D520684B
:1021B000C06810F00300002802D02000FFF724F8C8
:1021C0003000400607D55046C00604D555F480655A
:1021D0002068102101613000800608D55FEA0A708E
:1021E00005D5206808210161200000F07EF830004C
:1021F000C00608D52068006910F00300002802D04E
:10220000200000F071F8B00308D53800C00605D5ED
:10221000206810214160200000F068F8F00308D524
:102220003800000705D5206808214160200000F033
:102230005EF8300447D5780742D5F00504D55846F6
:10224000C00701D555F00105B00504D558468007F3
:1022500001D555F00205700504D55846400701D553
:1022600055F0040530052BD51BF07000002827D051
:102270001BF0700010280AD020280BD030280CD07A
:1022800040280DD050280ED060280FD012E055F015
:1022900008050FE055F010050CE055F0200509E0A9
:1022A00055F0400506E055F0800503E04FF48070DE
:1022B0000543FFE72068806930F07000216888617D
:1022C000206804214160002D05D0606A28436062C7
:1022D000200000F00DF8BDE8F18F7047704770479F
:1022E0007047704770477047704770477047704736
:1022F0007047000010B50400002C01D1012035E02A
:10230000A0690028FFD194F84100002805D10020E1
:1023100084F840002000FFF7ADFB242084F8410042
:102320002068C06830F400502168C860200000F0C8
:10233000D0FA2068006930F4904021680861206874
:10234000406930F02A00216848612068C06850F474
:1023500000502168C86000206064202084F841009B
:10236000202084F8420000206063002010BD90F817
:102370004130202B16D1002902D092B2002A01D17F
:10238000012010E001628284C28400214164212185
:1023900080F841100168C96851F080010068C1608F
:1023A000002000E00220704780B590F84230202BDA
:1023B0000CD1002902D092B2002A01D1012006E0FE
:1023C0000023036392B200F072F900E0022002BD24
:1023D00070B582B00400206800682168C96822686E
:1023E00052690023002510F00F063300002B09D19D
:1023F0000500AD0606D50D00AD0603D5200000F0A2
:10240000F0F950E1002B78D01300DB0703D44FF430
:102410009073194271D00300DB0705D5CB0503D5B6
:10242000636C53F00103636403005B0706D513007C
:10243000DB0703D5636C53F00203636403009B075F
:1024400006D51300DB0703D5636C53F00403636404
:1024500003001B0708D50B009B0601D4D20703D548
:10246000626C52F008026264626C002A44D08006FA
:1024700004D5880602D5200000F0B3F92068406931
:10248000C0F3801010F00105606C000701D4002D2E
:102490002DD0200000F02BF920684069400622D59D
:1024A000206800F2140050E8000F30F0400021686E
:1024B00001F2140141E80002002AF1D1E06B00288A
:1024C0000DD0E06B0FF28D210165E06BFEF7FAFB9A
:1024D000002811D0E06BE16B096D88470CE020000B
:1024E00000F0E3F808E0200000F0DFF804E020004E
:1024F00000F0DBF800206064D5E0226B012A40F098
:10250000C0800200D20640F1BC800A00D20640F131
:10251000B880002000902068006800902068406823
:10252000009000982168496949066BD5E06B006806
:10253000406880B2002854D0A18D80B2884250D229
:10254000E085E06BC0694FF4807188423FD020681D
:1025500000F20C0050E8000F30F48070216801F2A6
:102560000C0141E80002002AF1D1206800F21400B9
:1025700050E8000F40084000216801F2140141E8D2
:102580000002002AF1D1206800F2140050E8000F88
:1025900030F04000216801F2140141E80002002AF5
:1025A000F1D1202084F8420000202063206800F24E
:1025B0000C0050E8000F30F01000216801F20C010F
:1025C00041E80002002AF1D1E06BFEF72DFB02206A
:1025D0006063A08DE18D411A89B2200000F066F899
:1025E0000FE0A18D80B288420BD1E06BC0694FF43F
:1025F0008071884205D102206063A18D200000F027
:1026000055F850E0A08DE18D411AE08D002837D0BB
:1026100089B2002934D0206800F20C0050E8000F85
:1026200030F49070226802F20C0242E80003002BA2
:10263000F1D1206800F2140050E8000F400840007B
:10264000226802F2140242E80003002BF1D120209C
:1026500084F8420000202063206800F20C0050E85B
:10266000000F30F01000226802F20C0242E8000372
:10267000002BF1D10220606389B2200000F016F82F
:1026800011E00200120606D50A00120603D520004A
:1026900000F068F807E0400605D5480603D520009D
:1026A00000F091F8FFE773BD704770477047816293
:1026B0008285C28500214164222180F8421001698F
:1026C000002906D00168C9684FF48072114302687E
:1026D000D1600168496951F00101026851610168E6
:1026E000C96851F020010068C1600020704701688E
:1026F00001F20C0151E8001F31F49071026802F2FE
:102700000C0242E80013002BF1D1016801F2140120
:1027100051E8001F49084900026802F2140242E829
:102720000013002BF1D1016B01290DD1016801F2D9
:102730000C0151E8001F31F01001026802F20C0296
:1027400042E80013002BF1D1202180F84210002133
:102750000163704780B5806B0021C185FFF7A5FF3D
:1027600001BD000090F8411021292AD18168B1F5FE
:10277000805F0CD10169002909D1016A02680988CA
:10278000C905C90D5160016A891C016205E0016A31
:102790004A1C0262026809785160C18C491EC184DA
:1027A00089B200290BD10168C96831F08001026843
:1027B000D1600168C96851F040010068C160002023
:1027C00000E00220704780B50168C96831F040011F
:1027D0000268D160202180F84110FFF765FF0020DA
:1027E00002BD80B50021002290F84230222B6ED12C
:1027F0008168B1F5805F0CD10169002909D1826A35
:1028000001684968C905C90D1180816A891C816206
:1028100016E0816A8268B2F5805F05D08268002A7E
:1028200006D10269002A03D1026852680A7004E0E6
:102830000268526812F07F020A70816A491C816244
:10284000C18D491EC18589B200293ED10168C96880
:1028500031F020010268D1600168C96831F48071EB
:102860000268D160016849694908490002685161FC
:10287000202180F8421000214163016B012920D101
:1028800000210163016801F20C0151E8001F31F0E1
:102890001001026802F20C0242E80013002BF1D191
:1028A00001680968C90608D5002100910168096816
:1028B00000910168496800910099818DFFF7F6FE4B
:1028C00001E0FEF7B7FC002002E0002000E002205B
:1028D00002BDF8B504002068006930F44050E1689A
:1028E000084321680861A0682169084361690843B9
:1028F000E16908432168C968624A114008432168B8
:10290000C8602068406930F44070A16908432168BC
:10291000486120685C49884203D020685B4988424E
:1029200003D100F0DAFB050002E000F0CBFB05006C
:10293000E069B0F5004F52D11920A0FB0501626893
:102940000223A3FB022300F017FC6421B0FBF1F784
:102950001920A0FB050162680223A3FB022300F0FB
:102960000BFC06001920A0FB050162680223A3FBF3
:10297000022300F001FC6421B0FBF1F0642101FBB3
:102980001060C00032306421B0FBF1F010F0F800AC
:10299000400010EB07171920A0FB05016268022315
:1029A000A3FB022300F0E8FB06001920A0FB0501B1
:1029B00062680223A3FB022300F0DEFB6421B0FB6C
:1029C000F1F0642101FB1060C00032306421B0FBE3
:1029D000F1F010F00700C0192168886050E019205C
:1029E000A0FB050162680423A3FB022300F0C4FBE3
:1029F0006421B0FBF1F71920A0FB050162680423F4
:102A0000A3FB022300F0B8FB06001920A0FB050180
:102A100062680423A3FB022300F0AEFB6421B0FB39
:102A2000F1F0642101FB1060000132306421B0FB41
:102A3000F1F010F0F00010EB07171920A0FB0501D2
:102A400062680423A3FB022300F096FB0600192012
:102A5000A0FB050162680423A3FB022300F08CFBAA
:102A60006421B0FBF1F0642101FB10600001323001
:102A70006421B0FBF1F010F00F00C01921688860EC
:102A8000F1BD0000F369FFFF001001400014014098
:102A900070B582B00400002C01D101201EE2207824
:102AA000C0076FD5DFF84806006810F00C00042856
:102AB0000BD0DFF83C06006810F00C0008280ED19F
:102AC000DFF830060068400209D5DFF82C06006800
:102AD000800357D56068002854D10120FEE160686A
:102AE000B0F5803F08D1DFF81006006850F4803060
:102AF000DFF80416086024E06068B0F5A02F10D15C
:102B0000DFF8F405006850F48020DFF8EC15086069
:102B1000DFF8E405006850F48030DFF8DC15086069
:102B20000FE0DFF8D405006830F48030DFF8C81516
:102B30000860DFF8C405006830F48020DFF8B815BD
:102B40000860606800280ED0FEF72DF90500DFF858
:102B5000A8050068800315D4FEF725F9401B6528F9
:102B6000F5D30320BAE1FEF71EF90500DFF888056A
:102B70000068800306D5FEF716F9401B6528F5D3DB
:102B80000320ABE12078800727D5DFF864050068D3
:102B900010F00C0000280BD0DFF85405006810F08E
:102BA0000C00082832D1DFF84C05006840022DD413
:102BB000DFF844050068800704D5E068012801D0EB
:102BC00001208BE1DFF83005006830F0F800216962
:102BD00050EAC100DFF820150860207800075DD5B5
:102BE0006069002847D0DFF8140501210160FEF775
:102BF000DAF80500DFF80805006880074ED4FEF714
:102C0000D2F8401B0328F5D3032067E1E0680028D1
:102C10001ED0DFF8F00401210160FEF7C4F80500C2
:102C2000DFF8D4040068800706D4FEF7BCF8401B28
:102C30000328F5D3032051E1DFF8BC04006830F02D
:102C4000F800216950EAC100DFF8AC140860C4E75D
:102C5000DFF8B00400210160FEF7A5F80500DFF8F9
:102C6000980400688007B8D5FEF79DF8401B03283C
:102C7000F5D3032032E1DFF8840400210160FEF780
:102C800092F80500DFF878040068800706D5FEF7A3
:102C90008AF8401B0328F5D303201FE12078400762
:102CA00040F195800026DFF860040068C00011D470
:102CB00000200090DFF85004006850F08050DFF8EA
:102CC00048140860DFF84004006810F0805000905D
:102CD00000980126DFF834040068C00517D4DFF837
:102CE0002C0400684FF480710843DFF8201408605A
:102CF000FEF759F80500DFF814040068C00506D493
:102D0000FEF751F8401B0328F5D30320E6E0A06846
:102D1000012808D1DFF8F803006850F00100DFF85F
:102D2000F013086023E0A068052810D1DFF8E00365
:102D3000006850F00400DFF8D8130860DFF8D00313
:102D4000006850F00100DFF8C81308600FE0DFF8FA
:102D5000C003006840084000DFF8B4130860DFF8E3
:102D6000B003006830F00400DFF8A4130860A06826
:102D7000002810D0FEF717F80500DFF8940300686C
:102D8000800719D4FEF70FF8401B41F289318842C1
:102D9000F3D30320A2E0FEF706F80500DFF8700386
:102DA0000068800708D5FDF7FEFF401B41F289311E
:102DB0008842F3D3032091E0F6B2012E07D1DFF869
:102DC0004803006830F08050DFF83C130860A069C9
:102DD000002800F08280DFF81803006810F00C0073
:102DE00008284DD0A069022837D1DFF82803002138
:102DF0000160FDF7D8FF0500DFF8FC0200688001E4
:102E000006D5FDF7D0FF401B0328F5D3032065E06E
:102E1000A06A801EC003000C0004E169226A11430D
:102E2000626A51EA8211E26A51EA02610843DFF8FC
:102E3000C4120860DFF8DC0201210160FDF7B3FF76
:102E40000500DFF8B4020068800146D4FDF7ABFF4F
:102E5000401B0328F5D3032040E0DFF8B80200212F
:102E60000160FDF7A0FF0500DFF88C02006880011B
:102E700033D5FDF798FF401B0328F5D303202DE041
:102E8000A069012801D1012028E0DFF8680200686C
:102E9000A16901291FD010F48001E26991421AD181
:102EA00010F03F01226A914215D147F6C0710140EE
:102EB000626AB1EB821F0ED110F44031A26A921EF9
:102EC000D203120C1204914205D110F07060E16A35
:102ED000B0EB016F01D0012000E0002076BD70B59D
:102EE00004000D00002C01D10120AAE0DFF8280227
:102EF000006810F00700A8420BD2DFF81C02057032
:102F0000DFF81402006810F00700A84201D0012089
:102F100097E0207880071FD52078400707D5DFF895
:102F2000D001006850F4E050DFF8C4110860207848
:102F3000000707D5DFF8B801006850F46040DFF8FB
:102F4000B0110860DFF8A801006830F0F000A16857
:102F50000843DFF89C1108602078C0073AD5606804
:102F6000012806D1DFF890010068800315D4012004
:102F700067E06068022802D06068032806D1DFF8A5
:102F800078010068800108D401205AE0DFF8680168
:102F90000068800701D4012053E0DFF85401006885
:102FA000800880006168084351490860FDF7FBFE16
:102FB00006004F48006810F00C006168B0EB810F0C
:102FC00008D0FDF7F0FE801B41F289318842F0D332
:102FD000032036E05048006810F00700854209D20F
:102FE0004D4805704C48006810F00700A84201D019
:102FF000012026E02078400707D53D48006830F4DE
:10300000E050E16808433A4908602078000708D595
:103010003748006830F46040216950EAC100344903
:10302000086000F00FF832490968C1F303113B4A08
:10303000895CC8403A4908603A480068FDF78BFE51
:10304000002070BD10B50022002000230021284C74
:10305000246814F00C04002C04D0042C04D0082C98
:1030600004D029E0304928E0304926E021480068B2
:1030700010F03F021F48006840020AD51D48006852
:10308000C0F388102949A1FB0001002300F074F867
:1030900009E018480068C0F388102349A1FB00012B
:1030A000002300F069F813490968C1F30141491C84
:1030B0004B00B0FBF3F100E01B49080010BD1848BD
:1030C0000068704780B5FFF7FAFF09490968C1F346
:1030D0008221174A895CC84002BD80B5FFF7EFFF27
:1030E00003490968C1F34231114A895CC84002BDF5
:1030F000083802400438024000380240800E47423F
:1031000074380240000047424038024000700040DE
:103110007038024060004742003C024068340008BA
:1031200004000020000000200024F40000127A00B7
:103130009434000810B50400200000F095F8200039
:1031400010BD000000B500BF13009646944610392C
:1031500028BFA0E80C50FAD85FEA417C28BF0CC019
:1031600048BF40F8042BC90728BF20F8022B48BFEE
:1031700000F8012B00BD00001B4213D1094236D1DB
:103180002AB18446B0FBF2F002FB10C2704700F097
:10319000A7B8FCD30022002370470B0002000021D7
:1031A00000207047904271EB030CF6D370B5B1FA72
:1031B00081F4B3FA83F52C1BA340C4F1200532FA45
:1031C00005F63343A2405FF00046E64002E05B08AC
:1031D0005FEA3202841A71EB030524BF20462946B8
:1031E0007641F4D302000B003000002170BD012AAB
:1031F000CFD970B5140C20D0B1FA81F4B2FA82F5AF
:10320000C4F120046419B4F12006D6D3B2405FF0B3
:103210000044F440002502E052085FEA3303C61A76
:1032200071EB020E24BF3046714664416D41F3D309
:1032300002000B002000290070BD0C46B1FBF2F12A
:1032400002FB11452D0445EA1045B5FBF2F402FBE3
:10325000145580B240EA0545B5FBF2F002FB10526E
:1032600040EA044070BD000062B38B0708D0521ED4
:1032700011F8013B00F8013B00F024808B07F6D1E8
:10328000830740F0208000BF103A07D330B4B1E884
:103290003810103AA0E83810F9D230BC530724BFD8
:1032A000B1E80810A0E8081044BF51F8043B40F80A
:1032B000043BD20724BF31F8022B20F8022B44BF75
:1032C0000B7803707047083A07D3B1E80810083A42
:1032D00040F8043B40F804CBF7D25307E4E7000082
:1032E00070470000FEE7FEE7FEE7FEE7FEE77047F7
:1032F0007047704780B5FDF74EFD01BD80B52F4882
:10330000FCF7ACFF002801D0FDF7D6FF2B482C4975
:1033100001602A484FF48271416028480021816091
:1033200026480021C1602548002101612348002171
:10333000416122484FF40071816120480021C16140
:103340001E48002101621D48002141621B480021E6
:1033500081621A480A21C1621848FCF715FF00284B
:1033600001D0FDF7A9FF01224FF400411548FEF7F7
:103370004AF90A2214491148FCF78CFF002801D0B1
:10338000FDF79AFF0120FEF748F901BD80B50F480F
:10339000FEF785FE01BD80B50D480121017007488B
:1033A000FDF78EF801224FF480510648FEF72BF905
:1033B00001BD80B50748FFF70BF801BD0C000020E8
:1033C00000380040000C024050010020AC000020FA
:1033D000640100206400002010B5084979441C31C4
:1033E000074C7C441A34A14206D0081D0A685118C3
:1033F00088470146A142F8D110BD00BF0800000077
:1034000028000000BFDEFFFF5C0100000C00002070
:1034100000000000D7D8FFFF0C000000B80100003A
:10342000000000200000000000F009F8002801D092
:10343000FFF7D2FF0020FDF7D5FC00F002F80120D5
:10344000704700F001B800000746384600F002F867
:10345000FBE7000080B5C046C046024A11001820B4
:10346000ABBEFBE7260002000000000000000000E9
:103470000102030406070809014880470148004784
:10348000D135000889340008C046C046C046C04651
:10349000FFF7CAFF0000000001020304FFF7FEBFB0
:1034A000FFF7FEBFFFF7FEBFFFF7FEBFFFF7FEBF50
:1034B000FFF7FEBFFFF7FEBFFFF7FEBFFFF7FEBF40
:1034C000FFF7FEBFFFF7FEBFFFF7FEBFFFF7FEBF30
:1034D000FFF7FEBFFFF7FEBFFFF7FEBFFFF7FEBF20
:1034E000FFF7FEBFFFF7FEBFFFF7FEBFFFF7FEBF10
:1034F000FFF7FEBFFFF7FEBFFFF7FEBFFFF7FEBF00
:10350000FFF7FEBFFFF7FEBFFFF7FEBFFFF7FEBFEF
:10351000FFF7FEBFFFF7FEBFFFF7FEBFFFF7FEBFDF
:10352000FFF7FEBFFFF7FEBFFFF7FEBFFFF7FEBFCF
:10353000FFF7FEBFFFF7FEBFFFF7FEBFFFF7FEBFBF
:10354000FFF7FEBFFFF7FEBFFFF7FEBFFFF7FEBFAF
:10355000FFF7FEBFFFF7FEBFFFF7FEBFFFF7FEBF9F
:10356000FFF7FEBFFFF7FEBFFFF7FEBFFFF7FEBF8F
:10357000FFF7FEBFFFF7FEBFFFF7FEBFFFF7FEBF7F
:10358000FFF7FEBFFFF7FEBFFFF7FEBFFFF7FEBF6F
:10359000FFF7FEBFFFF7FEBFFFF7FEBFFFF7FEBF5F
:1035A000FFF7FEBFFFF7FEBFFFF7FEBFFFF7FEBF4F
:1035B000FFF7FEBFFFF7FEBFFFF7FEBFFFF7FEBF3F
:1035C000FFF7FEBFFFF7FEBFFFF7FEBFFFF7FEBF2F
:1035D00070470000100000000024F4000301000008
:040000050800348932
:00000001FF
